{
    "contractName": "DonationSystemDemo",
    "abi": [
        {
            "inputs": [],
            "stateMutability": "nonpayable",
            "type": "constructor"
        },
        {
            "anonymous": false,
            "inputs": [
                {
                    "indexed": true,
                    "internalType": "address",
                    "name": "admin",
                    "type": "address"
                }
            ],
            "name": "AdminAdded",
            "type": "event"
        },
        {
            "anonymous": false,
            "inputs": [
                {
                    "indexed": true,
                    "internalType": "address",
                    "name": "admin",
                    "type": "address"
                }
            ],
            "name": "AdminRemoved",
            "type": "event"
        },
        {
            "anonymous": false,
            "inputs": [
                {
                    "indexed": true,
                    "internalType": "address",
                    "name": "donor",
                    "type": "address"
                },
                {
                    "indexed": false,
                    "internalType": "uint256",
                    "name": "requestId",
                    "type": "uint256"
                },
                {
                    "indexed": false,
                    "internalType": "uint256",
                    "name": "amount",
                    "type": "uint256"
                }
            ],
            "name": "DonationMade",
            "type": "event"
        },
        {
            "anonymous": false,
            "inputs": [
                {
                    "indexed": true,
                    "internalType": "address",
                    "name": "donor",
                    "type": "address"
                }
            ],
            "name": "DonorAdded",
            "type": "event"
        },
        {
            "anonymous": false,
            "inputs": [
                {
                    "indexed": true,
                    "internalType": "address",
                    "name": "donor",
                    "type": "address"
                }
            ],
            "name": "DonorConvertedToAdmin",
            "type": "event"
        },
        {
            "anonymous": false,
            "inputs": [
                {
                    "indexed": true,
                    "internalType": "address",
                    "name": "donor",
                    "type": "address"
                }
            ],
            "name": "DonorRemoved",
            "type": "event"
        },
        {
            "anonymous": false,
            "inputs": [
                {
                    "indexed": true,
                    "internalType": "address",
                    "name": "admin",
                    "type": "address"
                },
                {
                    "indexed": false,
                    "internalType": "uint256",
                    "name": "requestId",
                    "type": "uint256"
                }
            ],
            "name": "RequestApproved",
            "type": "event"
        },
        {
            "anonymous": false,
            "inputs": [
                {
                    "indexed": true,
                    "internalType": "address",
                    "name": "student",
                    "type": "address"
                },
                {
                    "indexed": false,
                    "internalType": "uint256",
                    "name": "requestId",
                    "type": "uint256"
                },
                {
                    "indexed": false,
                    "internalType": "string",
                    "name": "name",
                    "type": "string"
                },
                {
                    "indexed": false,
                    "internalType": "string",
                    "name": "description",
                    "type": "string"
                },
                {
                    "indexed": false,
                    "internalType": "uint256",
                    "name": "amount",
                    "type": "uint256"
                }
            ],
            "name": "RequestCreated",
            "type": "event"
        },
        {
            "anonymous": false,
            "inputs": [
                {
                    "indexed": true,
                    "internalType": "address",
                    "name": "student",
                    "type": "address"
                }
            ],
            "name": "StudentAdded",
            "type": "event"
        },
        {
            "anonymous": false,
            "inputs": [
                {
                    "indexed": true,
                    "internalType": "address",
                    "name": "student",
                    "type": "address"
                }
            ],
            "name": "StudentRemoved",
            "type": "event"
        },
        {
            "inputs": [
                {
                    "internalType": "address",
                    "name": "_admin",
                    "type": "address"
                }
            ],
            "name": "addAdmin",
            "outputs": [],
            "stateMutability": "nonpayable",
            "type": "function"
        },
        {
            "inputs": [
                {
                    "internalType": "address",
                    "name": "_donor",
                    "type": "address"
                }
            ],
            "name": "addDonor",
            "outputs": [],
            "stateMutability": "nonpayable",
            "type": "function"
        },
        {
            "inputs": [
                {
                    "internalType": "address",
                    "name": "_student",
                    "type": "address"
                }
            ],
            "name": "addStudent",
            "outputs": [],
            "stateMutability": "nonpayable",
            "type": "function"
        },
        {
            "inputs": [
                {
                    "internalType": "address",
                    "name": "",
                    "type": "address"
                }
            ],
            "name": "admins",
            "outputs": [
                {
                    "internalType": "bool",
                    "name": "exists",
                    "type": "bool"
                }
            ],
            "stateMutability": "view",
            "type": "function"
        },
        {
            "inputs": [
                {
                    "internalType": "uint256",
                    "name": "_requestId",
                    "type": "uint256"
                },
                {
                    "internalType": "address",
                    "name": "_student",
                    "type": "address"
                }
            ],
            "name": "approveRequest",
            "outputs": [],
            "stateMutability": "nonpayable",
            "type": "function"
        },
        {
            "inputs": [
                {
                    "internalType": "address",
                    "name": "",
                    "type": "address"
                }
            ],
            "name": "balances",
            "outputs": [
                {
                    "internalType": "uint256",
                    "name": "",
                    "type": "uint256"
                }
            ],
            "stateMutability": "view",
            "type": "function"
        },
        {
            "inputs": [
                {
                    "internalType": "string",
                    "name": "_name",
                    "type": "string"
                },
                {
                    "internalType": "string",
                    "name": "_description",
                    "type": "string"
                },
                {
                    "internalType": "uint256",
                    "name": "_amount",
                    "type": "uint256"
                }
            ],
            "name": "createRequest",
            "outputs": [],
            "stateMutability": "nonpayable",
            "type": "function"
        },
        {
            "inputs": [
                {
                    "internalType": "uint256",
                    "name": "_requestId",
                    "type": "uint256"
                },
                {
                    "internalType": "address",
                    "name": "_student",
                    "type": "address"
                }
            ],
            "name": "donateToRequest",
            "outputs": [],
            "stateMutability": "payable",
            "type": "function"
        },
        {
            "inputs": [
                {
                    "internalType": "address",
                    "name": "",
                    "type": "address"
                }
            ],
            "name": "donors",
            "outputs": [
                {
                    "internalType": "bool",
                    "name": "exists",
                    "type": "bool"
                },
                {
                    "internalType": "uint256",
                    "name": "balance",
                    "type": "uint256"
                }
            ],
            "stateMutability": "view",
            "type": "function"
        },
        {
            "inputs": [],
            "name": "getBalance",
            "outputs": [
                {
                    "internalType": "uint256",
                    "name": "",
                    "type": "uint256"
                }
            ],
            "stateMutability": "view",
            "type": "function"
        },
        {
            "inputs": [
                {
                    "internalType": "address",
                    "name": "_donor",
                    "type": "address"
                }
            ],
            "name": "getDonorDonations",
            "outputs": [
                {
                    "internalType": "uint256[]",
                    "name": "",
                    "type": "uint256[]"
                },
                {
                    "components": [
                        {
                            "internalType": "address",
                            "name": "sender",
                            "type": "address"
                        },
                        {
                            "internalType": "address",
                            "name": "receiver",
                            "type": "address"
                        },
                        {
                            "internalType": "uint256",
                            "name": "amount",
                            "type": "uint256"
                        },
                        {
                            "internalType": "uint256",
                            "name": "datetime",
                            "type": "uint256"
                        }
                    ],
                    "internalType": "struct DonationSystemDemo.Donation[]",
                    "name": "",
                    "type": "tuple[]"
                }
            ],
            "stateMutability": "view",
            "type": "function"
        },
        {
            "inputs": [
                {
                    "internalType": "address",
                    "name": "_student",
                    "type": "address"
                }
            ],
            "name": "getStudentDonations",
            "outputs": [
                {
                    "internalType": "uint256[]",
                    "name": "",
                    "type": "uint256[]"
                },
                {
                    "components": [
                        {
                            "internalType": "address",
                            "name": "sender",
                            "type": "address"
                        },
                        {
                            "internalType": "address",
                            "name": "receiver",
                            "type": "address"
                        },
                        {
                            "internalType": "uint256",
                            "name": "amount",
                            "type": "uint256"
                        },
                        {
                            "internalType": "uint256",
                            "name": "datetime",
                            "type": "uint256"
                        }
                    ],
                    "internalType": "struct DonationSystemDemo.Donation[]",
                    "name": "",
                    "type": "tuple[]"
                }
            ],
            "stateMutability": "view",
            "type": "function"
        },
        {
            "inputs": [
                {
                    "internalType": "address",
                    "name": "_student",
                    "type": "address"
                }
            ],
            "name": "getStudentRequests",
            "outputs": [
                {
                    "internalType": "uint256[]",
                    "name": "",
                    "type": "uint256[]"
                },
                {
                    "components": [
                        {
                            "internalType": "address",
                            "name": "student",
                            "type": "address"
                        },
                        {
                            "internalType": "string",
                            "name": "name",
                            "type": "string"
                        },
                        {
                            "internalType": "string",
                            "name": "description",
                            "type": "string"
                        },
                        {
                            "internalType": "uint256",
                            "name": "amount",
                            "type": "uint256"
                        },
                        {
                            "internalType": "bool",
                            "name": "isApproved",
                            "type": "bool"
                        },
                        {
                            "internalType": "bool",
                            "name": "isPaid",
                            "type": "bool"
                        }
                    ],
                    "internalType": "struct DonationSystemDemo.DonationRequest[]",
                    "name": "",
                    "type": "tuple[]"
                }
            ],
            "stateMutability": "view",
            "type": "function"
        },
        {
            "inputs": [],
            "name": "nextDonationId",
            "outputs": [
                {
                    "internalType": "uint256",
                    "name": "",
                    "type": "uint256"
                }
            ],
            "stateMutability": "view",
            "type": "function"
        },
        {
            "inputs": [],
            "name": "nextRequestId",
            "outputs": [
                {
                    "internalType": "uint256",
                    "name": "",
                    "type": "uint256"
                }
            ],
            "stateMutability": "view",
            "type": "function"
        },
        {
            "inputs": [
                {
                    "internalType": "address",
                    "name": "_admin",
                    "type": "address"
                }
            ],
            "name": "removeAdmin",
            "outputs": [],
            "stateMutability": "nonpayable",
            "type": "function"
        },
        {
            "inputs": [
                {
                    "internalType": "address",
                    "name": "_donor",
                    "type": "address"
                }
            ],
            "name": "removeDonor",
            "outputs": [],
            "stateMutability": "nonpayable",
            "type": "function"
        },
        {
            "inputs": [
                {
                    "internalType": "address",
                    "name": "_student",
                    "type": "address"
                }
            ],
            "name": "removeStudent",
            "outputs": [],
            "stateMutability": "nonpayable",
            "type": "function"
        },
        {
            "inputs": [
                {
                    "internalType": "address",
                    "name": "",
                    "type": "address"
                }
            ],
            "name": "students",
            "outputs": [
                {
                    "internalType": "bool",
                    "name": "exists",
                    "type": "bool"
                },
                {
                    "internalType": "uint256",
                    "name": "balance",
                    "type": "uint256"
                }
            ],
            "stateMutability": "view",
            "type": "function"
        },
        {
            "stateMutability": "payable",
            "type": "receive"
        }
    ],
    "bytecode": "608060405234801561001057600080fd5b50336000908152602081905260409020805460ff19166001908117909155600581905560065561202c806100456000396000f3fe6080604052600436106101185760003560e01c806349b279ad116100a0578063a7f77f6611610064578063a7f77f661461034f578063bc045df81461036f578063bd06ea191461038f578063ca0cdea8146103af578063d84edce3146103e957600080fd5b806349b279ad1461027a5780636a84a985146102a857806370480275146102be57806378c4798c146102de578063a6c807a9146102fe57600080fd5b806323fe79b8116100e757806323fe79b8146101ba57806325746834146101da57806327e235e3146101fa57806341e1991814610227578063429b62e51461023a57600080fd5b806302d903871461012457806312065fe01461015b57806315a46406146101785780631785f53c1461019857600080fd5b3661011f57005b600080fd5b34801561013057600080fd5b5061014461013f366004611a55565b6103ff565b604051610152929190611ab2565b60405180910390f35b34801561016757600080fd5b50475b604051908152602001610152565b34801561018457600080fd5b50610144610193366004611a55565b6105e2565b3480156101a457600080fd5b506101b86101b3366004611a55565b610818565b005b3480156101c657600080fd5b506101b86101d5366004611bd7565b6108d0565b3480156101e657600080fd5b506101b86101f5366004611a55565b610a70565b34801561020657600080fd5b5061016a610215366004611a55565b60036020526000908152604090205481565b6101b8610235366004611c44565b610b4f565b34801561024657600080fd5b5061026a610255366004611a55565b60006020819052908152604090205460ff1681565b6040519015158152602001610152565b34801561028657600080fd5b5061029a610295366004611a55565b611094565b604051610152929190611cb6565b3480156102b457600080fd5b5061016a60055481565b3480156102ca57600080fd5b506101b86102d9366004611a55565b6113e9565b3480156102ea57600080fd5b506101b86102f9366004611a55565b6114d9565b34801561030a57600080fd5b50610338610319366004611a55565b6002602052600090815260409020805460059091015460ff9091169082565b604080519215158352602083019190915201610152565b34801561035b57600080fd5b506101b861036a366004611a55565b6115bc565b34801561037b57600080fd5b506101b861038a366004611c44565b6116ba565b34801561039b57600080fd5b506101b86103aa366004611a55565b6118e1565b3480156103bb57600080fd5b506103386103ca366004611a55565b6001602081905260009182526040909120805491015460ff9091169082565b3480156103f557600080fd5b5061016a60065481565b6001600160a01b038116600090815260026020526040902054606090819060ff166104455760405162461bcd60e51b815260040161043c90611d84565b60405180910390fd5b6001600160a01b0383166000908152600260209081526040808320600401805482518185028101850190935280835291929091908301828280156104a857602002820191906000526020600020905b815481526020019060010190808311610494575b505050505090506000815167ffffffffffffffff8111156104cb576104cb611b34565b60405190808252806020026020018201604052801561050457816020015b6104f16119c5565b8152602001906001900390816104e95790505b50905060005b82518110156105d75760026000876001600160a01b03166001600160a01b03168152602001908152602001600020600201600084838151811061054f5761054f611dbb565b6020908102919091018101518252818101929092526040908101600020815160808101835281546001600160a01b0390811682526001830154169381019390935260028101549183019190915260030154606082015282518390839081106105b9576105b9611dbb565b602002602001018190525080806105cf90611de7565b91505061050a565b509094909350915050565b6001600160a01b038116600090815260016020526040902054606090819060ff166106475760405162461bcd60e51b81526020600482015260156024820152742237b737b9103237b2b9903737ba1032bc34b9ba1760591b604482015260640161043c565b6001600160a01b0383166000908152600160209081526040808320600201805482518185028101850190935280835291929091908301828280156106aa57602002820191906000526020600020905b815481526020019060010190808311610696575b505050505090506000815167ffffffffffffffff8111156106cd576106cd611b34565b60405190808252806020026020018201604052801561070657816020015b6106f36119c5565b8152602001906001900390816106eb5790505b50905060005b82518110156105d757600260006004600086858151811061072f5761072f611dbb565b6020026020010151815260200190815260200160002060009054906101000a90046001600160a01b03166001600160a01b03166001600160a01b03168152602001908152602001600020600201600084838151811061079057610790611dbb565b6020908102919091018101518252818101929092526040908101600020815160808101835281546001600160a01b0390811682526001830154169381019390935260028101549183019190915260030154606082015282518390839081106107fa576107fa611dbb565b6020026020010181905250808061081090611de7565b91505061070c565b3360009081526020819052604090205460ff166108475760405162461bcd60e51b815260040161043c90611e00565b6001600160a01b03811633036108af5760405162461bcd60e51b815260206004820152602760248201527f596f752063616e6e6f742072656d6f766520796f757273656c6620617320616e6044820152661030b236b4b71760c91b606482015260840161043c565b6001600160a01b03166000908152602081905260409020805460ff19169055565b3360009081526002602052604090205460ff1661093e5760405162461bcd60e51b815260206004820152602660248201527f4f6e6c792073747564656e74732063616e20706572666f726d2074686973206160448201526531ba34b7b71760d11b606482015260840161043c565b6000811161099a5760405162461bcd60e51b815260206004820152602360248201527f416d6f756e742073686f756c642062652067726561746572207468616e207a6560448201526239379760e91b606482015260840161043c565b6005805490819060006109ac83611de7565b9091555050336000818152600260209081526040808320858452600190810190925290912080546001600160a01b031916909217825581016109ee8682611ecd565b50600281016109fd8582611ecd565b506003808201849055336000818152600260209081526040808320909401805460018101825590835291200184905590517ffbb2699034efa0532d019ebdde78ddaebfaf80e94c06e767ea21fa18372778c890610a61908590899089908990611f8d565b60405180910390a25050505050565b3360009081526020819052604090205460ff16610a9f5760405162461bcd60e51b815260040161043c90611e00565b6001600160a01b03811660009081526001602052604090205460ff1615610b005760405162461bcd60e51b81526020600482015260156024820152742237b737b91030b63932b0b23c9032bc34b9ba399760591b604482015260640161043c565b6001600160a01b0381166000818152600160208190526040808320805460ff1916909217909155517f650e3d334de4d5e09c7c65afd02455857fea2913f96d605a7460fe08217115c79190a250565b3360009081526001602052604090205460ff16610bba5760405162461bcd60e51b8152602060048201526024808201527f4f6e6c7920646f6e6f72732063616e20706572666f726d20746869732061637460448201526334b7b71760e11b606482015260840161043c565b6001600160a01b03811660009081526002602052604090205460ff16610c225760405162461bcd60e51b815260206004820152601f60248201527f4f6e6c7920646f6e6f72732063616e206d616b6520646f6e6174696f6e732e00604482015260640161043c565b6001600160a01b03818116600090815260026020908152604080832086845260010190915290205416610c915760405162461bcd60e51b81526020600482015260176024820152762932b8bab2b9ba103237b2b9903737ba1032bc34b9ba1760491b604482015260640161043c565b6001600160a01b038116600090815260026020908152604080832085845260010190915290206004015460ff16610d0a5760405162461bcd60e51b815260206004820152601c60248201527f52657175657374206973206e6f7420617070726f766564207965742e00000000604482015260640161043c565b6001600160a01b038181166000908152600260208181526040808420878552600190810183528185205490951684529181528183208684529093019092522060040154610100900460ff1615610da25760405162461bcd60e51b815260206004820152601860248201527f5265717565737420697320616c726561647920706169642e0000000000000000604482015260640161043c565b60003411610e075760405162461bcd60e51b815260206004820152602c60248201527f446f6e6174696f6e20616d6f756e742073686f756c642062652067726561746560448201526b39103a3430b7103d32b9379760a11b606482015260840161043c565b6001600160a01b038181166000908152600260209081526040808320868452600101909152902080546003909101549116903410610eff576001600160a01b038216600081815260026020818152604080842088855260018101835290842060048101805461ff001916610100179055600301549484529190526005018054909190610e94908490611fca565b90915550506001600160a01b03821660009081526002602090815260408083208684526001018252918290206003015482518681529182015233917fd97bcdf12fa1d5342fc942da5eadf35c7597f34f8da7274c2b0d2ad979842679910160405180910390a2610fa8565b6001600160a01b038216600090815260026020908152604080832086845260010190915281206003018054349290610f38908490611fe3565b90915550506001600160a01b03821660009081526002602052604081206005018054349290610f68908490611fca565b90915550506040805184815234602082015233917fd97bcdf12fa1d5342fc942da5eadf35c7597f34f8da7274c2b0d2ad979842679910160405180910390a25b6040516001600160a01b038216903480156108fc02916000818181858888f19350505050158015610fdd573d6000803e3d6000fd5b50600680549081906000610ff083611de7565b90915550506001600160a01b039092166000818152600260208181526040808420878552808401835281852080546001600160a01b03199081163390811783556001808401805484168b179055348489015542600390940193909355600493840180548085018255908952868920018b90558a8852928552838720805490911690971790965584528482528320909101805493840181558252902001919091555050565b6001600160a01b038116600090815260026020526040902054606090819060ff166110d15760405162461bcd60e51b815260040161043c90611d84565b6001600160a01b03831660009081526002602090815260408083206003018054825181850281018501909352808352919290919083018282801561113457602002820191906000526020600020905b815481526020019060010190808311611120575b505050505090506000815167ffffffffffffffff81111561115757611157611b34565b6040519080825280602002602001820160405280156111ce57816020015b6111bb6040518060c0016040528060006001600160a01b031681526020016060815260200160608152602001600081526020016000151581526020016000151581525090565b8152602001906001900390816111755790505b50905060005b82518110156105d75760026000876001600160a01b03166001600160a01b03168152602001908152602001600020600101600084838151811061121957611219611dbb565b602002602001015181526020019081526020016000206040518060c00160405290816000820160009054906101000a90046001600160a01b03166001600160a01b03166001600160a01b0316815260200160018201805461127990611e44565b80601f01602080910402602001604051908101604052809291908181526020018280546112a590611e44565b80156112f25780601f106112c7576101008083540402835291602001916112f2565b820191906000526020600020905b8154815290600101906020018083116112d557829003601f168201915b5050505050815260200160028201805461130b90611e44565b80601f016020809104026020016040519081016040528092919081815260200182805461133790611e44565b80156113845780601f1061135957610100808354040283529160200191611384565b820191906000526020600020905b81548152906001019060200180831161136757829003601f168201915b50505091835250506003820154602082015260049091015460ff8082161515604084015261010090910416151560609091015282518390839081106113cb576113cb611dbb565b602002602001018190525080806113e190611de7565b9150506111d4565b3360009081526020819052604090205460ff166114185760405162461bcd60e51b815260040161043c90611e00565b6001600160a01b03811660009081526002602052604090205460ff161561148d5760405162461bcd60e51b815260206004820152602360248201527f596f752063616e6e6f74206d616b6520612073747564656e7420616e2061646d60448201526234b71760e91b606482015260840161043c565b6001600160a01b038116600081815260208190526040808220805460ff19166001179055517fcfe19d834a315744c8061ae46c808060d9ddaf65c96afb60ac34f55f82d2b35e9190a250565b3360009081526020819052604090205460ff166115085760405162461bcd60e51b815260040161043c90611e00565b6001600160a01b03811660009081526002602052604090205460ff166115405760405162461bcd60e51b815260040161043c90611d84565b6001600160a01b0381166000908152600260205260408120805460ff191681559061156e60038301826119ff565b61157c6004830160006119ff565b5060006005919091018190556040516001600160a01b038316917f090f8580c9984c072634e9bba0570c10e0478d3a652adb16d8c73528a2ab513c91a250565b3360009081526020819052604090205460ff166115eb5760405162461bcd60e51b815260040161043c90611e00565b6001600160a01b03811660009081526001602052604090205460ff1661164b5760405162461bcd60e51b81526020600482015260156024820152742237b737b9103237b2b9903737ba1032bc34b9ba1760591b604482015260640161043c565b6001600160a01b03811660009081526001602081905260408220805460ff191681559081018290559061168160028301826119ff565b50506040516001600160a01b038216907f5bd5f3d0851472ae611657fdf72058fe852e8abc149f35d2ca6617c61e5c5dc790600090a250565b3360009081526020819052604090205460ff166116e95760405162461bcd60e51b815260040161043c90611e00565b3360009081526020819052604090205460ff166117525760405162461bcd60e51b815260206004820152602160248201527f4f6e6c792061646d696e732063616e20617070726f76652072657175657374736044820152601760f91b606482015260840161043c565b6001600160a01b03811660009081526002602052604090205460ff1661178a5760405162461bcd60e51b815260040161043c90611d84565b6001600160a01b038181166000908152600260209081526040808320868452600101909152902054166117f95760405162461bcd60e51b81526020600482015260176024820152762932b8bab2b9ba103237b2b9903737ba1032bc34b9ba1760491b604482015260640161043c565b6001600160a01b038116600090815260026020908152604080832085845260010190915290206004015460ff16156118735760405162461bcd60e51b815260206004820152601c60248201527f5265717565737420697320616c726561647920617070726f7665642e00000000604482015260640161043c565b6001600160a01b03811660009081526002602090815260408083208584526001908101835292819020600401805460ff1916909317909255905183815233917fcf715a2da05df7f9c3593ed4c1325459767f11110b03bf2fe871a49a0daf6664910160405180910390a25050565b3360009081526020819052604090205460ff166119105760405162461bcd60e51b815260040161043c90611e00565b6001600160a01b03811660009081526002602052604090205460ff16156119795760405162461bcd60e51b815260206004820152601760248201527f53747564656e7420616c7265616479206578697374732e000000000000000000604482015260640161043c565b6001600160a01b038116600081815260026020526040808220805460ff19166001179055517f0e247955258b6547e8cccc2c23a51bde067ec81cbc12b12ee10ee47f2e333a4b9190a250565b604051806080016040528060006001600160a01b0316815260200160006001600160a01b0316815260200160008152602001600081525090565b5080546000825590600052602060002090810190611a1d9190611a20565b50565b5b80821115611a355760008155600101611a21565b5090565b80356001600160a01b0381168114611a5057600080fd5b919050565b600060208284031215611a6757600080fd5b611a7082611a39565b9392505050565b600081518084526020808501945080840160005b83811015611aa757815187529582019590820190600101611a8b565b509495945050505050565b60006040808352611ac581840186611a77565b83810360208581019190915285518083528682019282019060005b81811015611b2657845180516001600160a01b03908116855285820151168585015286810151878501526060908101519084015293830193608090920191600101611ae0565b509098975050505050505050565b634e487b7160e01b600052604160045260246000fd5b600082601f830112611b5b57600080fd5b813567ffffffffffffffff80821115611b7657611b76611b34565b604051601f8301601f19908116603f01168101908282118183101715611b9e57611b9e611b34565b81604052838152866020858801011115611bb757600080fd5b836020870160208301376000602085830101528094505050505092915050565b600080600060608486031215611bec57600080fd5b833567ffffffffffffffff80821115611c0457600080fd5b611c1087838801611b4a565b94506020860135915080821115611c2657600080fd5b50611c3386828701611b4a565b925050604084013590509250925092565b60008060408385031215611c5757600080fd5b82359150611c6760208401611a39565b90509250929050565b6000815180845260005b81811015611c9657602081850181015186830182015201611c7a565b506000602082860101526020601f19601f83011685010191505092915050565b60006040808352611cc981840186611a77565b6020848203818601528186518084528284019150828160051b85010183890160005b83811015611d7457868303601f19018552815180516001600160a01b031684528681015160c088860181905290611d2482870182611c70565b915050898201518582038b870152611d3c8282611c70565b6060848101519088015260808085015115159088015260a0938401511515939096019290925250509385019390850190600101611ceb565b50909a9950505050505050505050565b60208082526017908201527f53747564656e7420646f6573206e6f742065786973742e000000000000000000604082015260600190565b634e487b7160e01b600052603260045260246000fd5b634e487b7160e01b600052601160045260246000fd5b600060018201611df957611df9611dd1565b5060010190565b60208082526024908201527f4f6e6c792061646d696e732063616e20706572666f726d20746869732061637460408201526334b7b71760e11b606082015260800190565b600181811c90821680611e5857607f821691505b602082108103611e7857634e487b7160e01b600052602260045260246000fd5b50919050565b601f821115611ec857600081815260208120601f850160051c81016020861015611ea55750805b601f850160051c820191505b81811015611ec457828155600101611eb1565b5050505b505050565b815167ffffffffffffffff811115611ee757611ee7611b34565b611efb81611ef58454611e44565b84611e7e565b602080601f831160018114611f305760008415611f185750858301515b600019600386901b1c1916600185901b178555611ec4565b600085815260208120601f198616915b82811015611f5f57888601518255948401946001909101908401611f40565b5085821015611f7d5787850151600019600388901b60f8161c191681555b5050505050600190811b01905550565b848152608060208201526000611fa66080830186611c70565b8281036040840152611fb88186611c70565b91505082606083015295945050505050565b80820180821115611fdd57611fdd611dd1565b92915050565b81810381811115611fdd57611fdd611dd156fea2646970667358221220571d6f91d0a3f5dfdecad1d2f9b160d284970f6e0b9d13bc633d2e31c8876b8e64736f6c63430008130033",
    "sourcePath": "c:/Users/anormal/dev/test/contract/contracts/DonationSystemDemo.sol",
    "compiler": {
        "name": "solc",
        "version": "0.8.19+commit.7dd6d404"
    },
    "functionHashes": {
        "addAdmin(address)": "70480275",
        "addDonor(address)": "25746834",
        "addStudent(address)": "bd06ea19",
        "admins(address)": "429b62e5",
        "approveRequest(uint256,address)": "bc045df8",
        "balances(address)": "27e235e3",
        "createRequest(string,string,uint256)": "23fe79b8",
        "donateToRequest(uint256,address)": "41e19918",
        "donors(address)": "ca0cdea8",
        "getBalance()": "12065fe0",
        "getDonorDonations(address)": "15a46406",
        "getStudentDonations(address)": "02d90387",
        "getStudentRequests(address)": "49b279ad",
        "nextDonationId()": "d84edce3",
        "nextRequestId()": "6a84a985",
        "removeAdmin(address)": "1785f53c",
        "removeDonor(address)": "a7f77f66",
        "removeStudent(address)": "78c4798c",
        "students(address)": "a6c807a9"
    },
    "gasEstimates": {
        "creation": {
            "codeDepositCost": "1647200",
            "executionCost": "70245",
            "totalCost": "1717445"
        },
        "external": {
            "addAdmin(address)": "30232",
            "addDonor(address)": "30219",
            "addStudent(address)": "30228",
            "admins(address)": "2645",
            "approveRequest(uint256,address)": "37403",
            "balances(address)": "2586",
            "createRequest(string,string,uint256)": "infinite",
            "donateToRequest(uint256,address)": "infinite",
            "donors(address)": "4770",
            "getBalance()": "229",
            "getDonorDonations(address)": "infinite",
            "getStudentDonations(address)": "infinite",
            "getStudentRequests(address)": "infinite",
            "nextDonationId()": "2405",
            "nextRequestId()": "2340",
            "removeAdmin(address)": "26931",
            "removeDonor(address)": "infinite",
            "removeStudent(address)": "infinite",
            "students(address)": "4790"
        }
    }
}